:020000040000FA
:0E0000000000000000000000000000000000F2
:10100000816A836A846A826A000E936E000E946E0F
:10101000000E956EFF0E966E0F0EC16E000E006EE6
:10102000000E026E000E046E000E066E100E69ECCD
:1010300008F07AEC08F084B458EF08F084B223EF9B
:1010400008F016EF08F084A228EF08F023EF08F06C
:10105000100E69EC08F084B24EEF08F0010E06267F
:101060000F0E065CD8B437EF08F028EF08F0000E3A
:10107000066E010E00260A0E005CD8B449EC08F09A
:10108000060E025CD8B461EC08F07AEC08F028EFA8
:1010900008F0000E006E010E022612008282050E7C
:1010A00069EC08F0829284A216EF08F053EF08F082
:1010B00061EC08F08282C80E69EC08F0829216EFAB
:1010C00008F0000E006E000E026E1200000E046E9C
:1010D0001200086E320E0A6EC80E0C6E0000000080
:1010E0000C2E6EEF08F00A2E6CEF08F0082E6AEF57
:1010F00008F01200000E005CD8B4CBEC08F0010E32
:10110000005CD8B4D3EC08F0020E005CD8B4DBEC81
:1011100008F0030E005CD8B4E3EC08F0040E005CA9
:10112000D8B4EBEC08F0050E005CD8B4F3EC08F092
:10113000060E005CD8B4FBEC08F0070E005CD8B4D7
:1011400003EC09F0080E005CD8B40BEC09F0090EB2
:10115000005CD8B413EC09F0000E025CD8B41BECB0
:1011600009F0010E025CD8B423EC09F0020E025C17
:10117000D8B42BEC09F0030E025CD8B433EC09F0C0
:10118000040E025CD8B43BEC09F0050E025CD8B446
:1011900043EC09F01200829C8394819081948196A3
:1011A000829E8182120083948190828C81848186C8
:1011B000828E81821200829C839481948196819296
:1011C0008180828E1200829C83948190819481869A
:1011D000828E81921200828C839481908184818698
:1011E000829E81921200829C838481908194818668
:1011F000829E81921200829C838481908194819648
:10120000829E81921200829C839481908184818647
:10121000828E81821200829C839481908194819637
:10122000829E81921200829C839481908194818617
:10123000829E81921200839A8398819A819C819EDA
:10124000839E838C12008398819A838A818C818EFD
:10125000838E838C1200839A8398819C819E839CC9
:10126000818A838E1200839A8398819A819C818ED1
:10127000838E839C1200838A8398819A818C818ECD
:10128000839E839C1200839A8388819A819C818E9D
:06129000839E839C120006
:020000040030CA
:04000000000C1F1EB3
:02000500830175
:060008000FC00FE00F40E5
:00000001FF
