:020000040000FA
:06000000C4EF17F012002E
:06100000C4EF17F012001E
:02102A000000C4
:04102C0052EC0DF085
:10103000FB0EDBCFF3FFDB06F35000090AE0A0EC68
:101040000DF0FA0E0BEC0EF0F3E1151CF1E1010EC0
:1010500001D0000E81EF0DF052EC0DF03B0EE124BB
:1010600002E3E168E652E16E010EDB6A020EDB6A22
:10107000F90EDBCFF6FFFA0EDBCFF7FFFB0EDBCF6F
:10108000F8FF0800F550DF6EDF5002E1A5EF0CF02D
:10109000250EDF5C02E098EF0CF0030EDB6A040E15
:1010A000DB6A050EDB6A060EDB6A070EDB6ABAEC4A
:1010B0000CF02D0EDF5C0CE02B0EDF5C09E0200E47
:1010C000DF5C06E0230EDF5C03E0300EDF5C1AE13C
:1010D000DF50300A14E0130A0FE0030A0AE00B0A9B
:1010E00005E0060AE4E1030EDB80E1D7030EDB82B4
:1010F000DED7030EDB84DBD7030EDB86D8D7030EE7
:10110000DB88D5D72A0EDF5C1BE1B6EC0CF004ECD3
:101110000DF010E0030EDB8008680968130EDBCFCA
:101120000DF0140EDBCF0EF0CCEC10F0040E06C068
:10113000DBFF03D0130EEDEC0CF0BAEC0CF00BD08F
:10114000090EDB6A5BEC0DF003E0CFEC0DF0FAD793
:10115000090EEDEC0CF0030EDBB0DB982E0EDF5C1D
:101160001BE1BAEC0CF02A0EDF5C0BE1B6EC0CF0E4
:1011700004EC0DF003E1130E3FEC0DF0BAEC0CF0B3
:101180000BD0090EDB6A5BEC0DF003E0CFEC0DF049
:10119000FAD7090E3FEC0DF0680EDF5C07E1BAEC00
:1011A0000CF0680EDF5C1DE1030E18D0740EDF5CDE
:1011B00017E07A0EDF5C14E0480EDF5C06E0540EA8
:1011C000DF5C03E05A0EDF5C02E1020E07D06C0E1A
:1011D000DF5C03E06A0EDF5C04E1010E92EC0DF0CF
:1011E000C9DBDF506E0A01E17FD31E0A01E192D113
:1011F000200A01E18FD13F0A01E149D11A0A01E138
:1012000046D10D0A01E143D1200A01E140D13A0A59
:1012100001E13DD1200A01E13AD1260A01E135D1AF
:101220000D0A01E132D11A0A01E1D9D0200A4AE0BF
:10123000300A1FE0460A0EE0250A01E083D3D950A8
:10124000F90FE96EFF0EDA20EA6E010EEE5E000E77
:10125000EE5AEE5AA0EC0DF0250EE66E95DB03E19A
:10126000151C01E169D39CEC0DF001E26BD3DB2A84
:1012700069D3080EDB6A040EDB50010806E2040E97
:10128000DB0464EC0DF0DB508BDB080EDB5009E077
:10129000030EDB50010B05E172DB01E04DD3080EBC
:1012A000DB6A64DBEFCFDFFF14EC0EF003E1151C0B
:1012B00001E142D39CEC0DF001E3DB2A60DB01E1AC
:1012C00041D33AD3070EDB5002080FE1E0EC0DF0FA
:1012D000030EA7EC0DF00E0EEECFDBFF0F0EEECFE0
:1012E000DBFF100EEECFDBFF20D0F70EDBCF17F0C9
:1012F000F80EDBCF18F0020E175E000E185AF70E2C
:1013000017C0DBFFF80E18C0DBFF17C0E9FF18C0DD
:10131000EAFF97EC0DF0166A0E0E14C0DBFF0F0EFD
:1013200015C0DBFF100E16C0DBFF0E0EDBCFE6FF95
:101330000F0EDBCFE6FF100EDBCFE6FF0EEC17F053
:10134000E552E552E552130E07C0DBFF140E08C04C
:10135000DBFF060EDB5005E0130EDBEC0DF001E2C7
:101360006ADBFFEC0DF002E2130E37DBC2EC0DF08E
:1013700006E0040EDBEC0DF002E2050E2EDB030EA0
:10138000DBB005D0FCDA01E0D7D2080EDB6A090E2B
:10139000DB6A0E0EDBCFF6FF0F0EDBCFF7FF100E72
:1013A000DBCFF8FF0800F550DF6EDF5014E005ECEE
:1013B0000EF011E214EC0EF003E1151C01E1BCD2B9
:1013C000BBDB01E3DB2A090EDB2AD9500E0FE96EE5
:1013D000000ECBDBE7D7D3DA01E1B4D2ADD2C6DA67
:1013E000110EEECFDBFF120EEDCFDBFF110EDBCFC8
:1013F000E6FF120EDBCFE6FF00EC17F0E552E552F8
:10140000130EF3CFDBFF140EF4CFDBFF060EDB5021
:1014100004E0130ED0DB01E20EDBFFEC0DF002E284
:10142000130EDBDAAFDB05E0040EC5DB02E2050ECE
:10143000D4DA030EDBB005D0A2DA01E07DD2080ECB
:10144000DB6A090EDB6A110EDBCFE9FF120EDBCF80
:10145000EAFFEFCFDFFFDF5014E0D7DB12E2E4DB7F
:1014600003E1151C01E168D267DB01E3DB2A090E09
:10147000DB2A110EDB2ADBCFE9FF120EE8E3DB2AC1
:10148000E6D77DDA01E15ED257D2030EDB8E070E7E
:10149000DB0410E195DB040E5ADB0A0EEECFDBFF16
:1014A0000B0EEECFDBFF0C0EEECFDBFF0D0EEECF03
:1014B000DBFF6CD0070EDB5003082CE1030EDBAE24
:1014C0000DD0B2DA020E76DAEFCF14F0156A166A92
:1014D000176A14AE39D01568166835D0F70EDBCF11
:1014E00015F0F80EDBCF16F0020E155E000E165A40
:1014F000F70E15C0DBFFF80E16C0DBFF15C0E9FFC5
:1015000016C0EAFFEFCF14F00A0E14C0DBFF0B0E7B
:10151000DB6A38D0070EDB50020809E1030EDBAEB0
:1015200004D059DB16AE10D00ED055DB0DD0030E13
:10153000DBAE12D079DA020E3DDAF9DA166A176AF2
:1015400015AE02D016681768E2DA0C0E16C0DBFF83
:101550000D0E17C0DBFF1AD0F70EDBCF16F0F80E1A
:10156000DBCF17F0020E165E000E175AF70E16C0EC
:10157000DBFFF80E17C0DBFF16C0E9FF17C0EAFF5C
:10158000D6DAC5DA0C0EDB6A0D0EDB6A060EDB500E
:1015900005E1010EF36E050EF3CFDBFF150EDB6ADE
:1015A000160EDB6AD950370F146E000EDA20156E56
:1015B000390E14C0DBFF3A0E15C0DBFF380EDB6AB4
:1015C000080EDB6A0A0EAEDADF50780A12E0200A53
:1015D00010E0280A0CE0200A0AE03F0A06E00D0AA3
:1015E00002E0200A08E1020E05D0080E03D0080E22
:1015F000DF26100E97DA030EDBBE02D0DB92DB94FF
:10160000DB50800B24E08ADAD890030EEB50000AFE
:1016100008E6000EEE5C000EEE58000EEE58000ECE
:10162000EE5815E213DA0B680C680D680E6891EC41
:1016300016F00A0E02C0DBFF0B0E03C0DBFF0C0E20
:1016400004C0DBFF0D0E05C0DBFF2D0E08D0030E1E
:10165000DBA202D02B0E03D0DBA408D0200EF36E49
:10166000170EF3CFDBFF150EDB2A02D0170EDB6A55
:10167000050EDB5003E1B7D901E189D0EE0E146EFF
:101680002F0E156E000E166E070EDBCF17F0186AC0
:10169000196A1A6A17C00BF018C00CF019C00DF0C7
:1016A0001AC00EF0D3D933EC17F014500224F36EA5
:1016B00015500320F46E16500420F86EF4CFF7FF97
:1016C000F3CFF6FF0800090EF5CFDBFF580EDF5C05
:1016D0000FE1610EF36E090E7BD90AE3200E146E42
:1016E000090EDBCFE7FF1450E75E090EE7CFDBFF03
:1016F000070EDBCF14F0156A166A176A0FDA14C0EA
:101700000BF015C00CF016C00DF017C00EF0EECFA8
:1017100006F0EECF07F0EECF08F0EFCF09F033EC94
:1017200017F009C0EDFF08C0EDFF07C0EDFF06C0D0
:10173000EFFF390EDBCFE9FFDB063A0EDBCFEAFF26
:1017400001E2DB06090EDBCFEFFF150EDB2A4BD9DA
:1017500095E1030EDBA61DD06F0EDF5C06E1C1D95B
:1017600018E3150EDB285BDA14D0780EDF5C09E095
:10177000580EDF5C06E0620EDF5C03E0420EDF5CC9
:1017800008E1020EF36E160EF3CFDBFF02D0150E4A
:10179000DB6A030EDB50100B0EE0040EDBCF14F0FF
:1017A000050EDB50D880145406E2060EDB5003E130
:1017B000040EDB5034DA95D90AE2050EDBCFE7FFE1
:1017C000150EDB50E75E050EE7CFDBFF02D0050EFE
:1017D000DB6A040EDBCF14F0160E45D9D880145402
:1017E00014E2160EDBCFE6FF150EDBCFE6FF040E8C
:1017F000DBCFE6FF050EDB50E552E75CE552D88013
:10180000E754E552D880E7545FD9030EDB50010B53
:101810000BE1080EDB5008E0B2D801E08DD0080ED5
:10182000DB50BED8080EDB6A170EDB5007E088D904
:10183000170EF1D903E1151C01E17ED0160EDB5025
:1018400016E07ED9300EE66E9FD802E1151C74E0DA
:1018500077D9DFCFE6FF4FEC16F0E552E552E552BF
:10186000F4CF15F00001F31C02E1151C65E0050E34
:10187000DBCF14F0160EDB50D880145409E2050EAD
:10188000DBCFE7FF160EDB50E75E050EE7CFDBFF91
:10189000300EE66E050ECBD94FE1390EDB2ADBCFD9
:1018A000E9FF3A0E01E3DB2ADBCFEAFF090EEFCFB7
:1018B000DBFFDB500EE044D9090EADD902E1151C67
:1018C0003BE0390EDB2ADBCFE9FF3A0EEDE3DB2A02
:1018D000EBD755D831E1160EDBCFE6FF080EC3D8A3
:1018E000E552E7245DD82ED0070EDB50030A1CE03A
:1018F000010A14E0030A07E07BD9DBCFEEFF020EFA
:10190000DBCFEDFF1FD0F5D8196A17AE02D01868EB
:1019100019682CD8BCD819C0EEFF14D0EAD817BE6D
:10192000186824D8B4D80ED063D9DBCFEFFF0AD023
:101930007BD905E1151C03E1F368F46810D0FCD8ED
:1019400001E3DB2A79D941EF08F0010EDBCF14F077
:10195000020EDBCF15F014C0F3FF15C0F4FF3B0EF1
:10196000E15C02E2E16AE552E16ECBD029D9020ED8
:10197000A7EF0DF061D90800F550DF6E1200200EC0
:10198000E66E080E17EF0EF04FEC16F0E552E5523A
:10199000E552F3CF14F0F4CF15F00001F31C120060
:1019A000146E156AD950010F4DD91450EE261550FA
:1019B000ED221200185E000E195AF70E18C0DBFF58
:1019C000F80E19C0DBFF18C0E9FF19C0EAFF1200CA
:1019D000DBCFF4FFF350F45C1200DB50E76E040E33
:1019E000E7CFDBFF12000A0EDBCF14F00B0EDBCFCC
:1019F00015F00C0EDBCF16F00D0EDBCF17F01450E8
:101A00001510161017101200130EEECFDBFF140E78
:101A1000EDCFDBFF130EDBCF14F0140EDBCF15F090
:101A20000001800E15141200F70EDBCF18F0F80E2F
:101A3000DBCF19F01200050EDB50E66ED950130F04
:101A400001D9E552E750EE6EED6A12000A0EDBCFC7
:101A500006F00B0EDBCF07F00C0EDBCF08F00D0EFF
:101A6000DBCF09F01200DBCFE6FF150EDBCFE6FF80
:101A7000050EDB50E552E724E552E7241200DB5067
:101A8000CED8010EF36E060EF3CFDBFF1200EE5040
:101A9000EFCFEAFFE96E16C0EEFF17C0EEFF18C0E9
:101AA000EEFF1200D9CFE6FFDACFE6FFE1CFD9FF94
:101AB000E2CFDAFF1200DFCFE6FFE66AA2EC17F012
:101AC000E552E552F3501200E76E080EE7CFDBFF58
:101AD0001200EECF14F0EECF15F0EFCF16F0176A2C
:101AE0001200050EDBCF14F0150EDB50D880145415
:101AF0001200010EDBCF16F0020EDBCF17F0186AD2
:101B00001200E552E5CFDAFFE7CFD9FF12000A0E47
:101B100014C0DBFF0B0E15C0DBFF1200D9500A0FFB
:101B200022EF0EF0F36E070EF3CFDBFF1200EECFC5
:101B300014F0EFCF15F01200010EDB2A020E120096
:101B4000FC0EDBCFE6FFFD0EDBCFE6FF1200145EDE
:101B5000000E155AF70E14C0DBFFF80E15C0DBFFA0
:101B600014C0E9FF15C0EAFF1200DA20EA6EEF2A7E
:101B7000EECFF6FF000EEF22EECFF7FFEF22EECF13
:101B8000F8FF1200040EDBCFE6FF130EDB50E55228
:101B9000E75C9ADFDB5004DF060EDB501200090E13
:101BA000DB500A0DF350DF24D00FE76E090EE7CFAC
:101BB000DBFFBAEF0CF0DB50F36E050EE8EF0CF034
:101BC000F70EDBCF14F0F80EDBCF15F01200DFCFED
:101BD000E6FFC4EF0CF028DF030EECDE69EF0DF03A
:101BE00016EC08F0E552E552E552E5520009120004
:101BF000BDDEEE50EFCFEAFFE96E010E1200130ECC
:101C0000DB50F36E040EE8EF0CF0040EDB50F36EC5
:101C1000090EE8EF0CF0DBCFE6FFC4EF0CF0E76E47
:101C2000050EE7CFDBFF12008BDFE7EF0DF0DBCF18
:101C3000E6FF86DFF0EF0DF0D950F90FE96EFF0EE9
:0E1C4000B5EF0DF0E96E000EDA20EA6E12002C
:021C4E00019EF5
:101C500008D0019E09AE05D0086C091EE86A092269
:101C6000018E09C003F008C002F0136A126A8E0EDA
:101C7000046E056A62EF10F0016A9EEC10F0B6EC9B
:101C800010F001B646EF10F001A205D001BA46EF00
:101C900010F04DEF10F001BA59EF10F001A005D08F
:101CA00001B846EF10F059EF10F001B84DEF10F009
:101CB000056A7F0E0A24046EE86A05220F50045E4E
:101CC000E86A055A1A0E106E0A6A126A136A026AE4
:101CD000036A0C50075E0D50085A0E50095A000E48
:101CE0000A5A09E70C5007260D5008220E50092207
:101CF000000E0A2201D0128AD8900736083609361B
:101D00000A36D8901236133602360336102EE1D733
:101D1000095008100710D8A4128A62EF10F0016A67
:101D20009EEC10F0B6EC10F001B646EF10F001A2F8
:101D300005D001B846EF10F04DEF10F001AA05D024
:101D400001B046EF10F04DEF10F001B002D001A845
:101D500002D059EF10F0056A0F500A24046EE86AA9
:101D600005227E0E045EE86A055A126A136A026A48
:101D7000036A0E500902F4CF03F0F3CF02F00D50C6
:101D80000902F3501326F4500222000E03220E50D3
:101D90000802F3501326F4500222000E03220C50C6
:101DA0000902F3501226F4501322000E02220322DD
:101DB0000D500802F3501226F4501322000E022296
:101DC00003220E500702F3501226F4501322000E85
:101DD000022203220C500802F4501226000E132295
:101DE000022203220D500702F4501226000E132285
:101DF0000222032262EF10F00F7E016A9EEC10F0C7
:101E0000B6EC10F001B646EF10F001A20AD001AA1C
:101E100003D001BE46EF10F001A452EF10F04FEFD7
:101E200010F001AA05D001AC52EF10F04FEF10F006
:101E300001A00AD001A808D001BE04D001A402D09C
:101E40005BEF10F05FEF10F0126A056A0F500A5C4A
:101E5000116E10E307C013F008C002F009C003F0D0
:101E60000AC010F00CC007F00DC008F00EC009F059
:101E7000013A09D00CC013F00DC002F00EC003F0FF
:101E80000FC010F0116C019E01BC018E10C004F057
:101E900001B08EEF10F01A0E11608EEF10F0046A90
:101EA0000A6A01A408D0076C081E091E0A1EE86A07
:101EB000082209220A2201AC08D0136C021E031E5C
:101EC000041EE86A022203220422066A115207E075
:101ED0000A340932083207320632112EF9D7075078
:101EE000132608500222095003220A50042206C079
:101EF00012F0019E04AE0BD0126C131E021E031EC4
:101F0000041EE86A1322022203220422018E04A086
:101F100006D0D8800332023213321232102A10C097
:101F200004F062EF10F0006A0EAE9CEF0FF00D6C43
:101F30000E1EE86A0E22001E09AEA4EF0FF0086C18
:101F4000091EE86A0922001E8CEC17F009BEB4EFE6
:101F50000FF000AE000C086C091EE86A0922046C40
:101F6000051EE86A0522000C00BEABEF0FF00188E9
:101F7000FF0C016A9EEC10F001B6C3EF0FF001A256
:101F80000ED001B405D07F0E096EFF0E086E1FD073
:101F9000800E096E086A1BD0096A086A18D001B061
:101FA000FBD78F0E0A60EDD77E0E0A64F5D78E0E32
:101FB0000A5C05E0D890093208320A2AF8D701A451
:101FC00006D0086C091EE86A092209AEE5D712009E
:101FD000F1EC0FF001B6000C01B0000C01B4000CE4
:101FE000010C016A9EEC10F0B6EC10F001B6120084
:101FF00001AE08D001A004D001A802D001801200D7
:10200000019012000F500A5C0BE10E50095C08E1D0
:102010000D50085C05E10C50075C02E101801200E4
:10202000D8A002D0018E10D00A500FC00AF00F6E57
:1020300009500EC009F00E6E08500DC008F00D6E6C
:1020400007500CC007F00C6E0F500A5C10E0FF0F39
:1020500009E0019001B403D001AE0184120001AE89
:10206000019412000F2AD8900E320D320C320C500F
:10207000075E0D50085A0E50095A09BEEAD7D8908B
:102080000736083609360A2EF8D7C8D77F0E0A6EEB
:10209000FF0E096E086E076E12007F0E01BEFF0E66
:1020A0000A6E02D07F0E0A6E800E096E086A076AF9
:1020B000F3D701AE04D0800E0A6E096AF7D70A6A18
:1020C000096AF4D70350021013101210F8E005BE8D
:1020D000F0D703BE0CD004500510EBE0D8901236B8
:1020E0001336023603360406D8A00506F2D705508B
:1020F000D4E10428D2E012AE11D07F0E121402E116
:1021000013A00CD0132AE86A0222032207E3D88026
:10211000033202321332042A0428BFE00450C9E01B
:1021200013C007F002C008F00334096E04300A6ED1
:1021300009320A9E01BE0A8E4CEF10F009360A36AB
:1021400002E30184017E06E101800A6A096A086AE5
:10215000076A12000A2803E0D88009321200D890DA
:10216000093202E101821200018612000E360F369A
:1021700002E3018C017E06E101880F6A0E6A0D6A96
:102180000C6A12000F2803E0D8800E321200D8909B
:102190000E32EAE1018A120009C013F008C012F001
:1021A00008500D02F4CF07F0F3CF06F009500E02ED
:1021B000F4CF09F0F3CF08F00D02F3500726F450E6
:1021C0000822E86A092212500E02F3500726F45042
:1021D0000822E86A09220EAEF2EF10F01250085EF3
:1021E0001350095A13AE000C0D50085E0E50095AD8
:0221F000000CE1
:0E21F200D9CFE6FFE1CFD9FF1D0EE126190E71
:10220000DB6A1A0EDB6A1B0EDB6A1C0EDB6A926845
:10221000956A9668946AF70EE66E040EE66EE30E13
:10222000E66EC9EC16F0E552E552E55259EC13F0B2
:10223000E66A53EC14F0E552DC0EE66E2E0EE66E06
:10224000BBEC14F0E552E552400EE66E53EC14F090
:10225000E552D10EE66E2E0EE66EBBEC14F0E552A2
:10226000E552110EDB6A120EDB6A110EDBCF14F0A1
:10227000120EDBCF15F0D890155004E60A0E145C50
:10228000000E15580BE2780EE66E75EC17F0E5526D
:10229000110EDB2A120E01E3DB2AE7D7E66A53ECC4
:1022A00014F0E552CF0EE66E2E0EE66EBBEC14F087
:1022B000E552E552400EE66E53EC14F0E552CF0EB7
:1022C000E66E2E0EE66EBBEC14F0E552E552130EF0
:1022D000DB6A140EDB6A110EDB6A120EDB6A110E6A
:1022E000DBCF14F0120EDBCF15F0D890155004E6BA
:1022F0000A0E145C000E155830E205EC18F000ECE4
:1023000018F0000901E0FBD7130EDBCF16F0140E16
:10231000DBCF17F016C0E6FF17C0E6FFEEEC17F0B4
:10232000E552E7CF17F0E552E7CF16F01650F32449
:10233000146E1750F420156E130E14C0DBFF140E2C
:1023400015C0DBFF0C0EE66EE0EC17F0E552110E47
:10235000DB2A120E01E3DB2AC2D70A0E146E156ABD
:10236000130EDBCF08F0140EDBCF09F014C00DF014
:1023700015C00EF093EC0FF0130E08C0DBFF140E27
:1023800009C0DBFF130EDBCF18F0140EDBCF19F002
:10239000050E1902F3CF19F01802F3CF18F0F4501C
:1023A000192618C008F019C009F029EC0EF007C072
:1023B00014F008C015F009C016F00AC017F00C6A36
:1023C000C00E0D6E7F0E0E6E440E0F6E14C007F021
:1023D00015C008F016C009F017C00AF03CEC0EF06A
:1023E000150E07C0DBFF160E08C0DBFF170E09C075
:1023F000DBFF180E0AC0DBFF150EDBCF1CF0160E3C
:10240000DBCF1DF0170EDBCF1EF0180EDBCF1FF059
:102410000C6A0D6A7A0E0E6E440E0F6E1CC007F029
:102420001DC008F01EC009F01FC00AF08FEC0EF0AE
:1024300007C018F008C019F009C01AF00AC01BF054
:102440000C6A0D6AFA0E0E6E430E0F6E18C007F07E
:1024500019C008F01AC009F01BC00AF0FCEC0EF01D
:1024600007C014F008C015F009C016F00AC017F034
:102470000C6A0D6A200E0E6E410E0F6E14C007F02E
:1024800015C008F016C009F017C00AF03CEC0EF0B9
:10249000190E07C0DBFF1A0E08C0DBFF1B0E09C0B8
:1024A000DBFF1C0E0AC0DBFF150EDBCF16F0160E8D
:1024B000DBCF17F0170EDBCF18F0180EDBCF19F0BB
:1024C0000C6A0D6A200E0E6E410E0F6E16C007F0DC
:1024D00017C008F018C009F019C00AF08FEC0EF010
:1024E000B9EC0FF008C014F009C015F00A0E0D6E1B
:1024F0000E6A14C008F015C009F093EC0FF004C088
:1025000014F005C015F014C0E6FF15C0E6FF150E67
:10251000DBCF07F0160EDBCF08F0170EDBCF09F08C
:10252000180EDBCF0AF0B9EC0FF008C01AF009C0A2
:102530001BF01AC0E6FF1BC0E6FFBE0E1C6E2E0E7F
:102540001D6E1E6A1CC0E6FF1DC0E6FF1EC0E6FF32
:10255000D9CFE6FFDACFE6FFAAEC15F01F6E090E21
:10256000E15E1F50E66A53EC14F0E552D9CFE6FF66
:10257000DACFE6FF9BEC14F0E552E552190EDBCF03
:1025800014F01A0EDBCF15F01B0EDBCF16F01C0E6D
:10259000DBCF17F00C6A0D6AF80E0E6E410E0F6E4F
:1025A00014C007F015C008F016C009F017C00AF0F3
:1025B000E8EC0FF0010A02E1010E01D0000EE8B0D4
:1025C0008280E8A08290190EDBCF16F01A0EDBCFC6
:1025D00017F01B0EDBCF18F01C0EDBCF19F00C6AC6
:1025E0000D6A200E0E6E410E0F6E16C007F017C05A
:1025F00008F018C009F019C00AF08FEC0EF0B9EC21
:102600000FF008C014F009C015F00A0E0D6E0E6A26
:1026100014C008F015C009F093EC0FF004C014F0DA
:1026200005C015F014C0E6FF15C0E6FF190EDBCF9C
:1026300007F01A0EDBCF08F01B0EDBCF09F01C0EE3
:10264000DBCF0AF0B9EC0FF008C01AF009C01BF09C
:102650001AC0E6FF1BC0E6FFAE0E1C6E2E0E1D6EEE
:102660001E6A1CC0E6FF1DC0E6FF1EC0E6FFD9CFF4
:10267000E6FFDACFE6FFAAEC15F01F6E090EE15E69
:102680001F50400EE66E53EC14F0E552D9CFE6FF32
:10269000DACFE6FF9BEC14F0E552E55218D61D0E9A
:1026A000E15C02E2E16AE552E16EE552E7CFD9FF73
:0226B000120016
:0E26B2000F0EC112959495969598959A959C49
:1026C000959E83948396839E839C838A8388120E2F
:1026D000E66E75EC17F0E5528386060EE66E75EC35
:1026E00017F0E5528396060EE66E75EC17F0E5528C
:1026F000060EE66E75EC17F0E5528386060EE66E62
:1027000075EC17F0E5528396060EE66E75EC17F041
:10271000E552060EE66E75EC17F0E5528386060E5E
:10272000E66E75EC17F0E5528396060EE66E75ECD4
:1027300017F0E552839E839C838A83988386060ED6
:10274000E66E75EC17F0E5528396060EE66E75ECB4
:1027500017F0E552280EE66E0ED8E552060EE66E2C
:102760000AD8E5520E0EE66E06D8E552010EE66E68
:1027700002D8E5521200D9CFE6FFE1CFD9FF83940A
:102780008396FE0EDBA802D0838801D08398DBAA53
:1027900002D0838A01D0839ADBAC02D0838C01D033
:1027A000839CDBAE02D0838E01D0839E8386060E8F
:1027B000E66E75EC17F0E5528396060EE66E75EC44
:1027C00017F0E552FE0EDBA002D0838801D083987B
:1027D000DBA202D0838A01D0839ADBA402D0838C4F
:1027E00001D0839CDBA602D0838E01D0839E83869A
:1027F000060EE66E75EC17F0E5528396060EE66E51
:1028000075EC17F0E552E552E7CFD9FF1200D9CFAA
:10281000E6FFE1CFD9FF83848396FE0EDBA802D0CA
:10282000838801D08398DBAA02D0838A01D0839A5F
:10283000DBAC02D0838C01D0839CDBAE02D0838ED4
:1028400001D0839E8386060EE66E75EC17F0E55286
:102850008396060EE66E75EC17F0E552FE0EDBA0D1
:1028600002D0838801D08398DBA202D0838A01D072
:10287000839ADBA402D0838C01D0839CDBA602D098
:10288000838E01D0839E8386060EE66E75EC17F06C
:10289000E5528396060EE66E75EC17F0E552E552AA
:1028A000E7CFD9FF1200D9CFE6FFE1CFD9FF83945C
:1028B0008396838EFE0EDBA802D0838801D0839896
:1028C000DBAA02D0838A01D0839ADBAC02D0838C4E
:1028D00001D0839C8386060EE66E75EC17F0E552F8
:1028E0008396060EE66E75EC17F0E552FE0EDBA041
:1028F00002D0838801D08398DBA202D0838A01D0E2
:10290000839ADBA402D0838C01D0839CDBA602D007
:10291000838E01D0839E8386060EE66E75EC17F0DB
:10292000E5528396060EE66E75EC17F0E552E55219
:10293000E7CFD9FF1200D9CFE6FFE1CFD9FFFD0ED7
:10294000DBCFE9FFFE0EDBCFEAFFEF5010E0FD0E1C
:10295000DBCFE9FFFE0EDBCFEAFFEF50E66E57DF7D
:10296000E552FD0EDB2AFE0E01E3DB2AE8D7E55235
:10297000E7CFD9FF1200D9CFE6FFE1CFD9FFFD0E97
:10298000DBCFF6FFFE0EDBCFF7FF0800F55011E0BE
:10299000FD0EDBCFF6FFFE0EDBCFF7FF0800F55094
:1029A000E66E35DFE552FD0EDB2AFE0E01E3DB2A83
:1029B000E6D7E552E7CFD9FF1200D9CFE6FFE1CF46
:1029C000D9FF070EE126D9CFE9FFDACFEAFF200EC3
:1029D000EE6EEE6AEE6AEE6AEE6AEE6AEE6AD9CFE3
:1029E000E6FFDACFE6FFFD0EDBCFE6FFFE0EDBCF24
:1029F000E6FF10EC15F0E552E552E552E552D9CF6D
:102A0000E6FFDACFE6FF97DFE552E552070EE15C1D
:102A100002E2E16AE552E16EE552E7CFD9FF12002A
:102A2000D9CFE6FFDACFE6FFFA0EE3CFD9FFFB0EF0
:102A3000E3CFDAFFFD0EE35209E72D0EDE6EFC0E4A
:102A4000E31EE32AFD0ED8B4E306E31EE652E65287
:102A5000E652FD0EE124E76EFF0EE220E46EE65240
:102A6000F70EE3CFE6FFF70EE3CFE6FF80EC15F0BD
:102A7000F90EE124E96EFF0EE220EA6E70EC15F02B
:102A80000AE16DEC15F009E170EC15F008E16DEC70
:102A900015F007E108D07BEC15F076EC15F07BEC37
:102AA00015F076EC15F07BEC15F0DE6AF90EE126F8
:102AB000FF0EE222FF0EE3CFDAFFE552FF0EE3CF77
:102AC000D9FFE552FC0EE124E96EFF0EE220EA6E2A
:102AD000EECFF3FFEFCFF4FF1200EF380F0B120031
:102AE000EF500F0B02E1EE52D8841200EF380F0BBB
:102AF000300FDE6E1200EE500F0B300FDE6E120044
:102B0000FC0EE3CFE9FFFD0EE3CFEAFF100EE66E09
:102B1000EE6AEE6AEF6AD890FD0EE336FE0EE336FB
:102B2000ED36ED36EF36FF0EE30609E0A1EC15F0C9
:102B3000EE52A1EC15F0EE52A1EC15F0EDD7E56EDA
:102B40001200030EEF24E8B6EF6E300EEF24E8BE5D
:042B5000EF6E000C18
:0C2B5400D9CFE6FFDACFE6FFE1CFD9FFD2
:102B6000E2CFDAFFE652E652E652E652D950F90FCA
:102B7000146EFF0EDA20156E020E14C0DBFF030E7A
:102B800015C0DBFF020EDBCFE6FF030EDBCFE6FF57
:102B9000F90EDBCFE6FFFA0EDBCFE6FFFB0EDBCF55
:102BA000E6FFD950FC0FE66EFF0EDA20E66E2CEC45
:102BB00008F0146E070EE15C02E2E16AE552E16E94
:102BC0001450F3CFDEFFF4CFDDFFFC0EDBCFE9FFC7
:102BD000FD0EDBCFEAFFEF6ADECF14F0DDCF15F09C
:102BE00014C0F3FF15C0F4FF040EE15C02E2E16AD9
:102BF000E552E16EE552E5CFDAFFE7CFD9FF1200EB
:102C00002A0EF66E100EF76E000EF86E0001090027
:102C1000F550656F0900F550666F03E1656701D0F7
:102C20003DD00900F550606F0900F550616F090053
:102C3000F550626F09000900F550E96E0900F55082
:102C4000EA6E090009000900F550636F0900F550AC
:102C5000646F09000900F6CF67F0F7CF68F0F8CF8E
:102C600069F060C0F6FF61C0F7FF62C0F8FF0001C5
:102C7000635302E1645307E00900F550EE6E630709
:102C8000F8E26407F9D767C0F6FF68C0F7FF69C0CC
:0E2C9000F8FF00016507000E665BBFD712005B
:022C9E00D9CF8C
:102CA000E6FFDACFE6FFE1CFD9FFE2CFDAFFFB0E96
:102CB000DBCF14F0FC0EDBCF15F00001800E1514F5
:102CC0001AE1FB0EDBCFE9FFFC0EDBCFEAFFEECF14
:102CD000F3FFEDCFF4FFEE2A000EEF22F3CFE9FF72
:102CE000F4CFEAFFFD0EDBCFEFFFEF50156AF36E76
:102CF00015C0F4FF10D0FB0EDB50FE0806E1FD0E00
:102D0000DBCFE6FFD2EC17F005D0FD0EDBCFE6FF00
:102D100007EC18F0E552E552E5CFDAFFE7CFD9FF2F
:022D200012009F
:0E2D220006500B02F3CF02F0F4CF03F00C02C8
:102D3000F3500326000EF420046E06500D02F350EB
:102D40000426000EF420056E06500E02F3500526F0
:102D500007500B02F3500326F4500422000E052204
:102D600007500C02F3500426F450052207500D02C0
:102D7000F350052608500B02F3500426F4500522A8
:102D800008500C02F350052609500B02F35005269B
:022D900012002F
:0E2D9200D9CFE6FFDACFE6FFE1CFD9FFE2CFDF
:102DA000DAFFC26AC06AFC0EDB407F0B3C0BC26ECE
:102DB000FC0EDB38F00B300B146EFB0EDB500F0BF0
:102DC0001410C16EFD0EDB50040DF350380B156E60
:102DD000FD0EDB380F0B070B146EFD0EDB50800B66
:102DE00014101510C06EFC0EDBAE03D09E9C9D8CA3
:102DF000F28CC280E552E5CFDAFFE7CFD9FF1200AF
:102E0000FE0EE3CFE9FFFF0EE3CFEAFFF36AF46AB9
:102E1000EE5203E0F34AF42AFBD71200FF0EE3CF91
:102E2000F8FFE552FF0EE3CFF7FFE552FF0EE3CFC9
:102E3000F6FFE552E66AE66AE66A0900F55209E03D
:102E4000FD0EE32A05E1FE0EE32A02E1FF0EE32A6E
:102E5000F4D7FD0EE3CF07F0FE0EE3CF08F0FF0E30
:062E6000E3CF09F01200AF
:0A2E6600056A046A036A026A200E7E
:102E7000E76ED8900636073608360936023603362E
:102E8000043605360B50025C0C5003580D500458A4
:102E90000E50055809E30B50025E0C50035A0D50BA
:0E2EA000045A0E50055A062AE72EE4D71200F7
:022EAE00546569
:102EB0006D702E203D2025642E25646F4300416EE9
:102EC000616C6F672E203D2025642E2564560020FE
:102ED0000020416D6269656E746520004D6564690E
:092EE0006E646F2054656D7000F2
:062EEA00FF0EE350216E13
:102EF000EF0E01D0F30EE76EE72E7CEF17F00C0E0D
:102F0000206EE76AE72E82EF17F0202E81EF17F090
:082F1000212E7AEF17F01200E8
:082F1800056A046A100EE76E61
:102F2000D89008360936043605360D50045C0E502C
:102F3000055805E30D50045E0E50055A082AE72E89
:042F4000F0D71200B4
:0C2F4400F36AF46AFF0EE124E96EFF0E50
:102F5000E220EA6EED6607D02F0EEF6404D03A0E41
:082F6000EF6001D0F32A12001A
:082F6800000EF36E00EE00F014
:102F7000080E01D81200EA6002D0EE6AFCD7F350C6
:082F8000E9601200EE6AFCD7C3
:082F880013EE00F023EE00F04F
:102F9000F86A019C00EC16F008EC18F0F9EC10F05F
:042FA000FBD7120049
:0C2FA400FF0EE350ACBA04D0AF6AAB8E55
:102FB000AC8A949CACA2FED7AD6EF36EF46A12009C
:102FC000FF0EE350216E1B0E00D001D0200EE76EE5
:0C2FD000E72EFED7212EFAD700D0120009
:042FDC00C450176E58
:0E2FE000166AC3501610F36E17C0F4FF1200ED
:022FEE00303180
:0F2FF000323334353637383961626364656600D1
:0A300000C250020B01E0010E1200A5
:04300A00C28212006C
:02300E001200AE
:023010001200AC
:020000040030CA
:01000100CB33
:010003001EDE
:010005008773
:0100060021D8
:00000001FF
