:020000040000FA
:0600000028EF0FF01200D2
:0610000028EF0FF01200C2
:02102A000000C4
:04102C00019E08D049
:10103000019E09AE05D0086C091EE86A0922018EDE
:1010400009C003F008C002F0136A126A8E0E046E23
:10105000056AEBEF09F0016A27EC0AF03FEC0AF0B1
:1010600001B6CFEF09F001A205D001BACFEF09F028
:10107000D6EF09F001BAE2EF09F001A005D001B8FE
:10108000CFEF09F0E2EF09F001B8D6EF09F0056AF9
:101090007F0E0A24046EE86A05220F50045EE86A97
:1010A000055A1A0E106E0A6A126A136A026A036AF5
:1010B0000C50075E0D50085A0E50095A000E0A5A7D
:1010C00009E70C5007260D5008220E500922000E89
:1010D0000A2201D0128AD8900736083609360A3615
:1010E000D8901236133602360336102EE1D7095047
:1010F00008100710D8A4128AEBEF09F0016A27EC58
:101100000AF03FEC0AF001B6CFEF09F001A205D0DA
:1011100001B8CFEF09F0D6EF09F001AA05D001B070
:10112000CFEF09F0D6EF09F001B002D001A802D04C
:10113000E2EF09F0056A0F500A24046EE86A0522FE
:101140007E0E045EE86A055A126A136A026A036A2E
:101150000E500902F4CF03F0F3CF02F00D50090254
:10116000F3501326F4500222000E03220E50080200
:10117000F3501326F4500222000E03220C500902F1
:10118000F3501226F4501322000E022203220D50B7
:101190000802F3501226F4501322000E02220322FA
:1011A0000E500702F3501226F4501322000E0222B2
:1011B00003220C500802F4501226000E13220222C1
:1011C00003220D500702F4501226000E13220222B1
:1011D0000322EBEF09F00F7E016A27EC0AF03FECE7
:1011E0000AF001B6CFEF09F001A20AD001AA03D09C
:1011F00001BECFEF09F001A4DBEF09F0D8EF09F051
:1012000001AA05D001ACDBEF09F0D8EF09F001A08D
:101210000AD001A808D001BE04D001A402D0E4EF96
:1012200009F0E8EF09F0126A056A0F500A5C116EC6
:1012300010E307C013F008C002F009C003F00AC0B1
:1012400010F00CC007F00DC008F00EC009F0013A14
:1012500009D00CC013F00DC002F00EC003F00FC097
:1012600010F0116C019E01BC018E10C004F001B0A1
:1012700017EF0AF01A0E116017EF0AF0046A0A6AF3
:1012800001A408D0076C081E091E0A1EE86A08227D
:1012900009220A2201AC08D0136C021E031E041E90
:1012A000E86A022203220422066A115207E00A3485
:1012B0000932083207320632112EF9D707501326A9
:1012C00008500222095003220A50042206C012F0DC
:1012D000019E04AE0BD0126C131E021E031E041ED0
:1012E000E86A1322022203220422018E04A006D0FF
:1012F000D8800332023213321232102A10C004F0A6
:10130000EBEF09F0006A0EAE8BEF09F00D6C0E1ECC
:10131000E86A0E22001E09AE93EF09F0086C091E60
:10132000E86A0922001EF2EC0EF009BEA3EF09F0F4
:1013300000AE000C086C091EE86A0922046C051E48
:10134000E86A0522000C00BE9AEF09F00188FF0C44
:10135000016A27EC0AF001B6B2EF09F001A20AD047
:1013600001B403D07F0E096E19D0800E096E16D01D
:10137000096A14D001B0FCD7870E0A60F1D77E0E3F
:101380000A64F6D7860E0A5C04E0D89009320A2A6D
:10139000F9D701A403D0096C09AEEAD712007F0E79
:1013A0000A6EFF0E096E086E076E12007F0E01BEF8
:1013B000FF0E0A6E02D07F0E0A6E800E096E086A5A
:1013C000076AF3D701AE04D0800E0A6E096AF7D718
:1013D0000A6A096AF4D70350021013101210F8E0D9
:1013E00005BEF0D703BE0CD004500510EBE0D8903A
:1013F00012361336023603360406D8A00506F2D795
:101400000550D4E10428D2E012AE11D07F0E1214A0
:1014100002E113A00CD0132AE86A0222032207E398
:10142000D880033202321332042A0428BFE0045069
:10143000C9E013C007F002C008F00334096E04309D
:101440000A6E09320A9E01BE0A8ED5EF09F00936EE
:101450000A3602E30184017E06E101800A6A096A14
:10146000086A076A12000A2803E0D88009321200CD
:10147000D890093202E101821200018612000E3674
:101480000F3602E3018C017E06E101880F6A0E6AC5
:101490000D6A0C6A12000F2803E0D8800E32120089
:0A14A000D8900E32EAE1018A120032
:0614AA000F0EC112959423
:1014B00095969598959A959C959E83948396839EF0
:1014C000839C838A8388120EE66EDBEC0EF0E55275
:1014D0008386060EE66EDBEC0EF0E5528396060E72
:1014E000E66EDBEC0EF0E552060EE66EDBEC0EF07F
:1014F000E5528386060EE66EDBEC0EF0E55283962F
:10150000060EE66EDBEC0EF0E552060EE66EDBEC48
:101510000EF0E5528386060EE66EDBEC0EF0E55229
:101520008396060EE66EDBEC0EF0E552839E839CFE
:10153000838A83988386060EE66EDBEC0EF0E55216
:101540008396060EE66EDBEC0EF0E552280EE66E94
:101550000ED8E552060EE66E0AD8E5520E0EE66E7D
:1015600006D8E552010EE66E02D8E5521200D9CF38
:10157000E6FFE1CFD9FF83948396FE0EDBA802D06D
:10158000838801D08398DBAA02D0838A01D0839A12
:10159000DBAC02D0838C01D0839CDBAE02D0838E87
:1015A00001D0839E8386060EE66EDBEC0EF0E552DC
:1015B0008396060EE66EDBEC0EF0E552FE0EDBA027
:1015C00002D0838801D08398DBA202D0838A01D025
:1015D000839ADBA402D0838C01D0839CDBA602D04B
:1015E000838E01D0839E8386060EE66EDBEC0EF0C2
:1015F000E5528396060EE66EDBEC0EF0E552E55200
:10160000E7CFD9FF1200D9CFE6FFE1CFD9FF83841E
:101610008396FE0EDBA802D0838801D08398DBAAD4
:1016200002D0838A01D0839ADBAC02D0838C01D0B4
:10163000839CDBAE02D0838E01D0839E8386060E10
:10164000E66EDBEC0EF0E5528396060EE66EDBEC02
:101650000EF0E552FE0EDBA002D0838801D0839805
:10166000DBA202D0838A01D0839ADBA402D0838CD0
:1016700001D0839CDBA602D0838E01D0839E83861B
:10168000060EE66EDBEC0EF0E5528396060EE66E75
:10169000DBEC0EF0E552E552E7CFD9FF1200D9CFCF
:1016A000E6FFE1CFD9FF83948396838EFE0EDBA8FD
:1016B00002D0838801D08398DBAA02D0838A01D02C
:1016C000839ADBAC02D0838C01D0839C8386060E88
:1016D000E66EDBEC0EF0E5528396060EE66EDBEC72
:1016E0000EF0E552FE0EDBA002D0838801D0839875
:1016F000DBA202D0838A01D0839ADBA402D0838C40
:1017000001D0839CDBA602D0838E01D0839E83868A
:10171000060EE66EDBEC0EF0E5528396060EE66EE4
:10172000DBEC0EF0E552E552E7CFD9FF1200D9CF3E
:10173000E6FFE1CFD9FFFD0EDBCFE9FFFE0EDBCFE9
:10174000EAFFEF5010E0FD0EDBCFE9FFFE0EDBCF2E
:10175000EAFFEF50E66E57DFE552FD0EDB2AFE0E84
:1017600001E3DB2AE8D7E552E7CFD9FF1200D9CF52
:10177000E6FFE1CFD9FFFD0EDBCFF6FFFE0EDBCF9C
:10178000F7FF0800F55011E0FD0EDBCFF6FFFE0E6F
:10179000DBCFF7FF0800F550E66E35DFE552FD0EB2
:1017A000DB2AFE0E01E3DB2AE6D7E552E7CFD9FFBD
:1017B0001200D9CFE6FFE1CFD9FF070EE126D9CF3E
:1017C000E9FFDACFEAFF200EEE6EEE6AEE6AEE6A0D
:1017D000EE6AEE6AEE6AD9CFE6FFDACFE6FFFD0EDB
:1017E000DBCFE6FFFE0EDBCFE6FFBBEC0DF0E552F4
:1017F000E552E552E552D9CFE6FFDACFE6FF97DFB3
:10180000E552E552070EE15C02E2E16AE552E16E63
:08181000E552E7CFD9FF1200F9
:08181800D9CFE6FFE1CFD9FFB3
:10182000230EE126190EDB6A1A0EDB6A1B0EDB6A39
:101830001C0EDB6A1D0EDB6A1E0EDB6A1F0EDB6AE6
:10184000200EDB6A210EDB6A220EDB6A9268966844
:10185000956A946AF70EE66E2C0EE66EE30EE66E5F
:10186000A4EC0EF0E552E552E55255EC0AF08294F4
:1018700083908392E66A4FEC0BF0E5529C0EE66E85
:101880001E0EE66EB7EC0BF0E552E552400EE66E2A
:101890004FEC0BF0E552110EDB6A120EDB6A110EF3
:1018A000DBCF14F0120EDBCF15F0D890155004E604
:1018B0000A0E145C000E15580BE2780EE66EDBEC97
:1018C0000EF0E552110EDB2A120E01E3DB2AE7D7F8
:1018D000E66A4FEC0BF0E5529A0EE66E1E0EE66ECF
:1018E000B7EC0BF0E552E552400EE66E4FEC0BF014
:1018F000E552130EDB6A140EDB6A110EDB6A120E60
:10190000DB6A110EDBCF14F0120EDBCF15F0D8908E
:10191000155004E60A0E145C000E155830E25AEC1D
:101920000FF055EC0FF0000901E0FBD7130EDBCFF1
:1019300016F0140EDBCF17F016C0E6FF17C0E6FF57
:1019400044EC0FF0E552E7CF17F0E552E7CF16F081
:101950001650F324146E1750F420156E130E14C095
:10196000DBFF140E15C0DBFF0C0EE66E36EC0FF03D
:10197000E552110EDB2A120E01E3DB2AC2D70A0E52
:10198000146E156A130EDBCF08F0140EDBCF09F0CE
:1019900014C00DF015C00EF082EC09F0130E08C053
:1019A000DBFF140E09C0DBFF130EDBCF18F0140EA3
:1019B000DBCF19F0050E1902F3CF19F01802F3CF9F
:1019C00018F0F450192618C008F019C009F018ECE6
:1019D00008F007C014F008C015F009C016F00AC0DE
:1019E00017F00C6AC00E0D6E7F0E0E6E440E0F6E59
:1019F00014C007F015C008F016C009F017C00AF0AF
:101A00002BEC08F0150E07C0DBFF160E08C0DBFF3D
:101A1000170E09C0DBFF180E0AC0DBFF150EDBCF67
:101A20001CF0160EDBCF1DF0170EDBCF1EF0180ECC
:101A3000DBCF1FF00C6A0D6A7A0E0E6E440E0F6E2D
:101A40001CC007F01DC008F01EC009F01FC00AF03E
:101A50007EEC08F007C018F008C019F009C01AF0B1
:101A60000AC01BF00C6A0D6AFA0E0E6E430E0F6E62
:101A700018C007F019C008F01AC009F01BC00AF01E
:101A8000EBEC08F007C014F008C015F009C016F020
:101A90000AC017F00C6A0D6A200E0E6E410E0F6E12
:101AA00014C007F015C008F016C009F017C00AF0FE
:101AB0002BEC08F0190E07C0DBFF1A0E08C0DBFF85
:101AC0001B0E09C0DBFF1C0E0AC0DBFF4E0EF36EBF
:101AD000210EF3CFDBFF010EF36E220EF3CFDBFFFF
:101AE0008284190EDBCF07F01A0EDBCF08F01B0E35
:101AF000DBCF09F01C0EDBCF0AF0A8EC09F009508F
:101B0000E66E08EC0FF0E5528294146A156AA00E96
:101B1000166E430E176E190EDBCF18F01A0EDBCFC0
:101B200019F01B0EDBCF1AF01C0EDBCF1BF018C018
:101B30000CF019C00DF01AC00EF01BC00FF014C04D
:101B400007F015C008F016C009F017C00AF0EBEC5A
:101B500008F0A8EC09F00950E66E08EC0FF0E55229
:101B6000C8D6230EE15C02E2E16AE552E16EE5527D
:061B7000E7CFD9FF1200CF
:0A1B7600D9CFE6FFDACFE6FFFA0E42
:101B8000E3CFD9FFFB0EE3CFDAFFFD0EE35209E707
:101B90002D0EDE6EFC0EE31EE32AFD0ED8B4E30626
:101BA000E31EE652E652E652FD0EE124E76EFF0E1A
:101BB000E220E46EE652F70EE3CFE6FFF70EE3CF46
:101BC000E6FF2BEC0EF0F90EE124E96EFF0EE220A9
:101BD000EA6E1BEC0EF00AE118EC0EF009E11BECCA
:101BE0000EF008E118EC0EF007E108D026EC0EF03C
:101BF00021EC0EF026EC0EF021EC0EF026EC0EF0AF
:101C0000DE6AF90EE126FF0EE222FF0EE3CFDAFFD5
:101C1000E552FF0EE3CFD9FFE552FC0EE124E96E59
:101C2000FF0EE220EA6EEECFF3FFEFCFF4FF1200DB
:101C3000EF380F0B1200EF500F0B02E1EE52D88479
:101C40001200EF380F0B300FDE6E1200EE500F0B4C
:101C5000300FDE6E1200FC0EE3CFE9FFFD0EE3CF86
:101C6000EAFF100EE66EEE6AEE6AEF6AD890FD0E9D
:101C7000E336FE0EE336ED36ED36EF36FF0EE306C5
:101C800009E04CEC0EF0EE524CEC0EF0EE524CEC47
:101C90000EF0EDD7E56E1200030EEF24E8B6EF6EFE
:0A1CA000300EEF24E8BEEF6E000CDA
:061CAA002A0EF66E100E7A
:101CB000F76E000EF86E00010900F550656F09001F
:101CC000F550666F03E1656701D03DD00900F5501E
:101CD000606F0900F550616F0900F550626F0900EF
:101CE0000900F550E96E0900F550EA6E0900090097
:101CF0000900F550636F0900F550646F0900090091
:101D0000F6CF67F0F7CF68F0F8CF69F060C0F6FF64
:101D100061C0F7FF62C0F8FF0001635302E1645342
:101D200007E00900F550EE6E6307F8E26407F9D7A3
:101D300067C0F6FF68C0F7FF69C0F8FF00016507DC
:081D4000000E665BBFD7120024
:081D4800D9CFE6FFDACFE6FF78
:101D5000E1CFD9FFE2CFDAFFC26AC06AFC0EDB40F6
:101D60007F0B3C0BC26EFC0EDB38F00B300B146E9D
:101D7000FB0EDB500F0B1410C16EFD0EDB50040D7B
:101D8000F350380B156EFD0EDB380F0B070B146E7E
:101D9000FD0EDB50800B14101510C06EFC0EDBAE78
:101DA00003D09E9C9D8CF28CC280E552E5CFDAFF79
:061DB000E7CFD9FF12008D
:0A1DB600FF0EE350216EEF0E01D086
:101DC000F30EE76EE72EE2EF0EF00C0E206EE76AE0
:101DD000E72EE8EF0EF0202EE7EF0EF0212EE0EFD9
:041DE0000EF01200EF
:0C1DE400056A046A100EE76ED8900836FD
:101DF0000936043605360D50045C0E50055805E3CF
:101E00000D50045E0E50055A082AE72EF0D7120036
:101E1000FF0EE350216E480E01D04C0EE76EE72E08
:101E2000FED7E76AE72EFED7212EF7D70000120073
:101E3000000EF36E00EE00F0080E01D81200EA600A
:101E400002D0EE6AFCD7F350E9601200EE6AFCD7CC
:101E500013EE00F023EE00F0F86A019C55EC0EF052
:0C1E60005CEC0FF00CEC0CF0FBD7120057
:041E6C00FF0EE35032
:101E7000216E1B0E00D001D0200EE76EE72EFED79C
:081E8000212EFAD700D0120058
:081E8800C450176E166AC35026
:0A1E90001610F36E17C0F4FF1200E5
:061E9A0020004D656469A3
:091EA0006E646F2054656D700042
:061EAA00C250020B01E032
:041EB000010E12000D
:041EB400C2821200D4
:021EB800120016
:020000040030CA
:01000100CB33
:010003001EDE
:010005008773
:0100060021D8
:00000001FF
