:020000040000FA
:020000000000FE
:10100000816A836A846A826A806A7F0E926E0F0E9A
:10101000C16E060E966E000E936E000E956E000E5B
:10102000946E8050006E1E0E00164BEC08F01E0EE3
:10103000005CD8B453EC08F00E0E005CD8B45BEC46
:1010400008F0160E005CD8B463EC08F0060E005CE5
:10105000D8B46BEC08F01A0E005CD8B473EC08F04E
:101060000A0E005CD8B47BEC08F0120E005CD8B419
:1010700083EC08F0020E005CD8B48BEC08F01C0E78
:10108000005CD8B493EC08F00C0E005CD8B49BEC78
:1010900008F011EF08F0838A8388818A818C818E21
:1010A000838E838C1200829C83948190819481969C
:1010B000829E8182120083948190828C81848186B9
:1010C000828E81821200829C839481948196819287
:1010D0008180828E1200829C83948190819481868B
:1010E000828E81921200828C839481908184818689
:1010F000829E81921200829C838481908194818659
:10110000829E81921200828C838481908194819648
:10111000829E81921200829C839481908184818638
:10112000828E81821200829C839481908194819628
:10113000829E81921200829C839481908184818618
:06114000829E8192120064
:020000040030CA
:04000000000C1F1EB3
:02000500830175
:060008000FC00FE00F40E5
:00000001FF
