:020000040000FA
:0600000066EF13F0120090
:0610000066EF13F0120080
:02102A000000C4
:04102C00D9CFE6FF33
:10103000E1CFD9FF200EE126FB0EDBCF07F0FC0E3F
:10104000DBCF08F0FD0EDBCF09F0FE0EDBCF0AF0A0
:1010500000EC0BF01C0E06C0DBFF1D0E07C0DBFF13
:101060001E0E08C0DBFF1F0E09C0DBFFD950180F92
:10107000E66E000EDA20E66ED950FB0FE96EFF0E29
:10108000DA20EA6EEECFE6FFEECFE6FFEECFE6FF28
:10109000EFCFE6FFC3EC10F0166E060EE15E1650C1
:1010A000F3CF14F0F4CF15F014C008F015C009F018
:1010B00053EC0AF0100E07C0DBFF110E08C0DBFF77
:1010C000120E09C0DBFF130E0AC0DBFF100EDBCFD0
:1010D00014F0110EDBCF15F0120EDBCF16F0130E4D
:1010E000DBCF17F00C6A500E0D6EC30E0E6E470E5E
:1010F0000F6E14C007F015C008F016C009F017C035
:101100000AF066EC0AF000EC0BF0140E06C0DBFFF0
:10111000150E07C0DBFF160E08C0DBFF170E09C057
:10112000DBFFD9CFE6FFDACFE6FFD9501C0FE96E1F
:10113000DACFEAFFEECFE6FFEECFE6FFEECFE6FF37
:10114000EFCFE6FFA5EC0EF0146E060EE15E145034
:10115000D9CFE6FFDACFE6FF96EC0DF0E552E55287
:101160007C0EE66E260EE66EB6EC0DF0E552E5520C
:10117000D9CFE6FFDACFE6FFD950140FE96EDACF08
:10118000EAFFEECFE6FFEECFE6FFEECFE6FFEFCFD2
:10119000E6FFA5EC0EF0146E060EE15E1450D9CFFA
:1011A000E6FFDACFE6FF96EC0DF0E552E552200EB1
:1011B000E15C02E2E16AE552E16EE552E7CFD9FF78
:1011C0001200D9CFE6FFE1CFD9FF380EE126DE6A63
:1011D000DD6A020EDB6A030EDB6A9368946A0F0E07
:1011E000C11254EC0CF0829482928290E66A4EEC2A
:1011F0000DF0E552400EE66E4EEC0DF0E552DE6A63
:10120000DD6A6B0EE66E260EE66EB6EC0DF0E5526C
:10121000E55284A209D0D9CFE9FFDACFEAFFEE5038
:10122000ED1001E1F6D79ED084A49BD0DECF14F060
:10123000DDCF15F0010E1426000E152214C0DEFFBE
:1012400015C0DDFFDECF14F0DDCF15F0D8901550BE
:1012500004E6060E145C000E155803E3010EDE6E64
:10126000DD6AE66A4EEC0DF0E5525E0EE66E260E85
:10127000E66EB6EC0DF0E552E552E66A4EEC0DF086
:10128000E552000EDFCF08F0010EDBCF09F0050EAE
:10129000081801E1095055E0040E081801E1095051
:1012A00040E0030E081801E109502BE0020E081877
:1012B00001E1095016E0010E081801E1095001E0B2
:1012C00050D0010EF36E020EF3CFDBFF030EDB6A8C
:1012D000550EE66E260EE66EB6EC0DF0E552E552C2
:1012E00040D0050EF36E020EF3CFDBFF030EDB6A78
:1012F0004B0EE66E260EE66EB6EC0DF0E552E552AC
:1013000030D00A0EF36E020EF3CFDBFF030EDB6A62
:10131000400EE66E260EE66EB6EC0DF0E552E55296
:1013200020D0140EF36E020EF3CFDBFF030EDB6A48
:10133000350EE66E260EE66EB6EC0DF0E552E55281
:1013400010D01E0EF36E020EF3CFDBFF030EDB6A2E
:101350002A0EE66E260EE66EB6EC0DF0E552E5526C
:1013600000D057D73C0E086E096A020EDBCF0DF095
:10137000030EDBCF0EF0D3EC0AF006C0DEFF07C091
:10138000DDFF0A0EDE6EDD6AE6683FEC13F0E55223
:10139000E6683FEC13F0E552E6683FEC13F0E552E7
:1013A0000A0EE66E3FEC13F0E552E66A4EEC0DF0E5
:1013B000E5525E0EE66E260EE66EB6EC0DF0E552D8
:1013C000E552E66A4EEC0DF0E552D950180FE66E84
:1013D000000EDA20E66EDECF16F0DDCF17F0186AC9
:1013E000196A17AE02D01868196816C0E6FF17C050
:1013F000E6FF18C0E6FF19C0E6FFA5EC0EF01A6E76
:10140000060EE15E1A50F3CF14F0F4CF15F014C0BD
:10141000E6FF15C0E6FF96EC0DF0E552E552DECF93
:1014200014F0DDCF15F01406000E155A14C0DEFFBF
:1014300015C0DDFFD9CFE9FFDACFEAFFEE50ED109E
:1014400023E1E66A4EEC0DF0E5521F0EE66E260E25
:10145000E66EB6EC0DF0E552E552400EE66E4EEC4F
:101460000DF0E552160EE66E260EE66EB6EC0DF0A9
:10147000E552E55282748450020B03E18450040B60
:1014800001E001D0F8D703D084B401D07DD7380E65
:10149000E15C02E2E16AE552E16EE552E7CFD9FF95
:0214A000120038
:0E14A200019E08D0019E09AE05D0086C091EFF
:1014B000E86A0922018E09C003F008C002F0136A2D
:1014C000126A8E0E046E056A53EF0BF0016A8FEC00
:1014D0000BF0A7EC0BF001B637EF0BF001A205D033
:1014E00001B837EF0BF03EEF0BF001AA05D001B0C9
:1014F00037EF0BF03EEF0BF001B002D001A802D0A5
:101500004AEF0BF0056A0F500A24046EE86A0522C0
:101510007E0E045EE86A055A126A136A026A036A5A
:101520000E500902F4CF03F0F3CF02F00D50090280
:10153000F3501326F4500222000E03220E5008022C
:10154000F3501326F4500222000E03220C5009021D
:10155000F3501226F4501322000E022203220D50E3
:101560000802F3501226F4501322000E0222032226
:101570000E500702F3501226F4501322000E0222DE
:1015800003220C500802F4501226000E13220222ED
:1015900003220D500702F4501226000E13220222DD
:1015A000032253EF0BF009C013F008C012F00850EB
:1015B0000D02F4CF07F0F3CF06F009500E02F4CF7E
:1015C00009F0F3CF08F00D02F3500726F45008227B
:1015D000E86A092212500E02F3500726F45008223E
:1015E000E86A09220EAEF9EF0AF01250085E1350B5
:1015F000095A13AE000C0D50085E0E50095A000C2B
:10160000016A8FEC0BF001B60AEF0BF001A20FD0CC
:1016100001B407D07F0E096EFF0E086E076E066ECE
:1016200025D0800E096E01D0096A000EF6D701B0F0
:10163000FBD7066A9F0E0A60EBD77E0E0A64F4D7CA
:101640009E0E0A5C07E0D890093208320732063253
:101650000A2AF6D701A40AD0066C071E081E091E26
:10166000E86A07220822092209AEDED712007F0E9F
:101670000A6EFF0E096E086E076E12007F0E01BE25
:10168000FF0E0A6E02D07F0E0A6E800E096E086A87
:10169000076AF3D701AE04D0800E0A6E096AF7D745
:1016A0000A6A096AF4D70350021013101210F8E006
:1016B00005BEF0D703BE0CD004500510EBE0D89067
:1016C00012361336023603360406D8A00506F2D7C2
:1016D0000550D4E10428D2E012AE11D07F0E1214CE
:1016E00002E113A00CD0132AE86A0222032207E3C6
:1016F000D880033202321332042A0428BFE0045097
:10170000C9E013C007F002C008F00334096E0430CA
:101710000A6E09320A9E01BE0A8E3DEF0BF00936B1
:101720000A3602E30184017E06E101800A6A096A41
:10173000086A076A12000A2803E0D88009321200FA
:10174000D890093202E101821200018612000E36A1
:101750000F3602E3018C017E06E101880F6A0E6AF2
:101760000D6A0C6A12000F2803E0D8800E321200B6
:10177000D8900E32EAE1018A12000F7E016A8FECE6
:101780000BF0A7EC0BF001B637EF0BF001A20AD07B
:1017900001AA03D001BE37EF0BF001A443EF0BF019
:1017A00040EF0BF001AA05D001AC43EF0BF040EF86
:1017B0000BF001A00AD001A808D001BE04D001A4FA
:1017C00002D04CEF0BF050EF0BF0126A056A0F508D
:1017D0000A5C116E10E307C013F008C002F009C0E4
:1017E00003F00AC010F00CC007F00DC008F00EC0E6
:1017F00009F0013A09D00CC013F00DC002F00EC080
:1018000003F00FC010F0116C019E01BC018E10C0DE
:1018100004F001B07FEF0BF01A0E11607FEF0BF0B8
:10182000046A0A6A01A408D0076C081E091E0A1E71
:10183000E86A082209220A2201AC08D0136C021EB1
:10184000031E041EE86A022203220422066A1152C1
:1018500007E00A340932083207320632112EF9D76E
:101860000750132608500222095003220A5004226E
:1018700006C012F0019E04AE0BD0126C131E021EA5
:10188000031E041EE86A1322022203220422018E90
:1018900004A006D0D8800332023213321232102A4A
:0818A00010C004F053EF0BF03F
:0818A8000F0EC11295949596F4
:1018B0009598959A959C959E83948396839E839CF8
:1018C000838A8388120EE66E3FEC13F0E55283861E
:1018D000060EE66E3FEC13F0E5528396060EE66EBA
:1018E0003FEC13F0E552060EE66E3FEC13F0E552C6
:1018F0008386060EE66E3FEC13F0E5528396060EE5
:10190000E66E3FEC13F0E552060EE66E3FEC13F088
:10191000E5528386060EE66E3FEC13F0E5528396A1
:10192000060EE66E3FEC13F0E552839E839C838A9D
:1019300083988386060EE66E3FEC13F0E55283969D
:10194000060EE66E3FEC13F0E552280EE66E0ED85A
:10195000E552060EE66E0AD8E5520E0EE66E06D881
:10196000E552010EE66E02D8E5521200D9CFE6FF2D
:10197000E1CFD9FF83948396FE0EDBA802D0838843
:1019800001D08398DBAA02D0838A01D0839ADBAC92
:1019900002D0838C01D0839CDBAE02D0838E01D039
:1019A000839E8386060EE66E3FEC13F0E552839627
:1019B000060EE66E3FEC13F0E552FE0EDBA002D001
:1019C000838801D08398DBA202D0838A01D0839AD6
:1019D000DBA402D0838C01D0839CDBA602D0838E53
:1019E00001D0839E8386060EE66E3FEC13F0E5522F
:1019F0008396060EE66E3FEC13F0E552E552E7CF14
:101A0000D9FF1200D9CFE6FFE1CFD9FF83848396B7
:101A1000FE0EDBA802D0838801D08398DBAA02D017
:101A2000838A01D0839ADBAC02D0838C01D0839C63
:101A3000DBAE02D0838E01D0839E8386060EE66ED7
:101A40003FEC13F0E5528396060EE66E3FEC13F082
:101A5000E552FE0EDBA002D0838801D08398DBA282
:101A600002D0838A01D0839ADBA402D0838C01D078
:101A7000839CDBA602D0838E01D0839E8386060ED4
:101A8000E66E3FEC13F0E5528396060EE66E3FECF1
:101A900013F0E552E552E7CFD9FF1200D9CFE6FFA8
:101AA000E1CFD9FF83948396838EFE0EDBA802D00C
:101AB000838801D08398DBAA02D0838A01D0839ADD
:101AC000DBAC02D0838C01D0839C8386060EE66E4D
:101AD0003FEC13F0E5528396060EE66E3FEC13F0F2
:101AE000E552FE0EDBA002D0838801D08398DBA2F2
:101AF00002D0838A01D0839ADBA402D0838C01D0E8
:101B0000839CDBA602D0838E01D0839E8386060E43
:101B1000E66E3FEC13F0E5528396060EE66E3FEC60
:101B200013F0E552E552E7CFD9FF1200D9CFE6FF17
:101B3000E1CFD9FFFD0EDBCFE9FFFE0EDBCFEAFFE1
:101B4000EF5010E0FD0EDBCFE9FFFE0EDBCFEAFF2A
:101B5000EF50E66E57DFE552FD0EDB2AFE0E01E385
:101B6000DB2AE8D7E552E7CFD9FF1200D9CFE6FF4D
:101B7000E1CFD9FFFD0EDBCFF6FFFE0EDBCFF7FF87
:101B80000800F55011E0FD0EDBCFF6FFFE0EDBCFB7
:101B9000F7FF0800F550E66E35DFE552FD0EDB2A53
:101BA000FE0E01E3DB2AE6D7E552E7CFD9FF1200AC
:101BB000D9CFE6FFE1CFD9FF070EE126D9CFE9FF64
:101BC000DACFEAFF200EEE6EEE6AEE6AEE6AEE6A99
:101BD000EE6AEE6AD9CFE6FFDACFE6FFFD0EDBCF85
:101BE000E6FFFE0EDBCFE6FF0BEC0EF0E552E55212
:101BF000E552E552D9CFE6FFDACFE6FF97DFE552AF
:101C0000E552070EE15C02E2E16AE552E16EE5525F
:061C1000E7CFD9FF12002E
:0A1C1600D9CFE6FFDACFE6FFFA0EA1
:101C2000E3CFD9FFFB0EE3CFDAFFFD0EE35209E766
:101C30002D0EDE6EFC0EE31EE32AFD0ED8B4E30685
:101C4000E31EE652E652E652FD0EE124E76EFF0E79
:101C5000E220E46EE652F70EE3CFE6FFF70EE3CFA5
:101C6000E6FF7BEC0EF0F90EE124E96EFF0EE220B8
:101C7000EA6E6BEC0EF00AE168EC0EF009E16BEC39
:101C80000EF008E168EC0EF007E108D076EC0EF0FB
:101C900071EC0EF076EC0EF071EC0EF076EC0EF0CE
:101CA000DE6AF90EE126FF0EE222FF0EE3CFDAFF35
:101CB000E552FF0EE3CFD9FFE552FC0EE124E96EB9
:101CC000FF0EE220EA6EEECFF3FFEFCFF4FF12003B
:101CD000EF380F0B1200EF500F0B02E1EE52D884D9
:101CE0001200EF380F0B300FDE6E1200EE500F0BAC
:101CF000300FDE6E1200FC0EE3CFE9FFFD0EE3CFE6
:101D0000EAFF100EE66EEE6AEE6AEF6AD890FD0EFC
:101D1000E336FE0EE336ED36ED36EF36FF0EE30624
:101D200009E09CEC0EF0EE529CEC0EF0EE529CECB6
:101D30000EF0EDD7E56E1200030EEF24E8B6EF6E5D
:101D4000300EEF24E8BEEF6E000CD9CFE6FFDACFFD
:101D5000E6FFF80EE3CFD9FFF90EE3CFDAFFFD0E71
:101D6000E35215E72D0EDE6EFA0EE31EFB0EE31EA8
:101D7000FC0EE31EFD0EE31EFA0EE32A08E1FB0E45
:101D8000E32A05E1FC0EE32A02E1FD0EE32AE65216
:101D9000E652E652E652E652FB0EE124E76EFF0EF3
:101DA000E220E46EE652F30EE3CFE6FFF30EE3CF5C
:101DB000E6FFF30EE3CFE6FFF30EE3CFE6FF42ECE0
:101DC0000FF0F50EE124E96EFF0EE220EA6E2FEC33
:101DD0000FF019E132EC0FF018E12FEC0FF017E1E2
:101DE00032EC0FF016E12FEC0FF015E132EC0FF0B2
:101DF00014E12FEC0FF013E132EC0FF012E12FECB5
:101E00000FF011E112D038EC0FF03DEC0FF038EC90
:101E10000FF03DEC0FF038EC0FF03DEC0FF038EC2C
:101E20000FF03DEC0FF038EC0FF03DEC0FF0DE6AF8
:101E3000F50EE126FF0EE222FF0EE3CFDAFFE552B8
:101E4000FF0EE3CFD9FFE552FA0EE124E96EFF0E53
:101E5000E220EA6EEECFF3FFEFCFF4FF1200EF388F
:101E60000F0B1200EF500F0B02E1EE52D88412005C
:101E7000EF380F0B300FDE6E1200EE500F0B300FED
:101E8000DE6E1200FA0EE3CFE9FFFB0EE3CFEAFFAE
:101E9000200EE66EEE6AEE6AEE6AEE6AEF6AD8909F
:101EA000FB0EE336FC0EE336FD0EE336FE0EE336A4
:101EB000ED36ED36ED36ED36EF36FF0EE3060FE08C
:101EC00071EC0FF0EE5271EC0FF0EE5271EC0FF07E
:101ED000EE5271EC0FF0EE5271EC0FF0E1D7E56EBF
:101EE0001200030EEF24E8B6EF6E300EEF24E8BECA
:041EF000EF6E000C85
:0C1EF400D9CFE6FFDACFE6FFE1CFD9FF3F
:101F0000E2CFDAFF130EE12402E3E168E652E16E6C
:101F10000C0EDB6AD950FA0FE96EFF0EDA20EA6E7A
:101F2000080EEECFDBFF090EEECFDBFF0A0EEECF81
:101F3000DBFF0B0EEECFDBFF1FD9D950080F17D9EF
:101F4000EECFE6FFEECFE6FFEECFE6FFEFCFE6FF08
:101F5000A1EC11F0146E060EE15C02E2E16AE552BA
:101F6000E16E1450DF6E020EDF5C01E0BCD0050EA6
:101F7000DBCF16F0060EDBCF17F0F80EDB50165C49
:101F8000146EF90EDB501758156E7F0E145E000E9E
:101F9000155A0D0E14C0DBFF0E0E15C0DBFF0D0E23
:101FA0000E0EDBCF15F00001800E15140AE0010EB5
:101FB000F36E0C0EF3CFDBFF070EDB5001E098D081
:101FC0009DD00D0EDBCF14F00E0EDBCF15F0D890A8
:101FD000155004E6170E145C000E155801E39ED050
:101FE000186819687F0E1A6E1B6A0D0EDB501F0BE6
:101FF00018C014F019C015F01AC016F01BC017F065
:1020000007E0D8901732163215321432E806F9E19B
:102010000F0E14C0DBFF100E15C0DBFF110E16C033
:10202000DBFF120E17C0DBFF0F0EDBCF14F0100E1C
:10203000DBCF15F0110EDBCF16F0120EDBCF17F051
:10204000D950010F94D8EE501416EE501516EE50DC
:102050001616EE501716145015101610171002E130
:10206000000E01D0010EE76E0C0EE7CFDBFFDB5058
:1020700055E0186A196A800E1A6E1B6A010E1C6EF2
:102080001D6A1E6A1F6AD9500F0F71D8EE501C26A8
:10209000EE501D22EE501E22EE501F221C50185CE6
:1020A000146E1D501958156E1E501A58166E1F507A
:1020B0001B58176ED950010F5AD81450EE161550F0
:1020C000EE161650EE161750EE16D950080FE66EA3
:1020D000000EDA20E66E50D82FEC12F0E552E552F1
:1020E000E552E5521BD0DF0419E1070EDB5006E094
:1020F000146A156A166A800E176E04D0146A156A7F
:10210000166A176A080E14C0DBFF090E15C0DBFF44
:102110000A0E16C0DBFF0B0E17C0DBFFF60EDBCF7F
:10212000E9FFF70EDBCFEAFF0C0EDBCFEFFF080E67
:10213000DBCF14F0090EDBCF15F00A0EDBCF16F063
:102140000B0EDBCF17F014C006F015C007F016C059
:1021500008F017C009F0130EE15C02E2E16AE552F3
:10216000E16EE552E5CFDAFFE7CFD9FF1200E96E65
:10217000000EDA20EA6E1200D950010FE66E000E52
:06218000DA20E66E1200F9
:0A218600D9CFE6FFDACFE6FFE1CF84
:10219000D9FFE2CFDAFF120EE12402E3E168E65252
:1021A000E16ED950090FE66E000EDA20E66E000EE1
:1021B000E66EE66AB5D87AEC0FF0146E080EE15CB4
:1021C00002E2E16AE552E16E1450050E06C0DBFF43
:1021D000060E07C0DBFF070E08C0DBFF080E09C0B4
:1021E000DBFF090EDB5037E0FA0EDBCF14F0FB0EFD
:1021F000DBCF15F0FC0EDBCF16F0FD0EDBCF17F0BA
:10220000050EDBCF18F0060EDBCF19F0070EDBCF83
:102210001AF0080EDBCF1BF018C00CF019C00DF03F
:102220001AC00EF01BC00FF014C007F015C008F064
:1022300016C009F017C00AF0BDEC0BF0010E07C084
:10224000DBFF020E08C0DBFF030E09C0DBFF040E3C
:102250000AC0DBFF33D0D9500B0FE66E000EDA2038
:10226000E66E5ED8A1EC11F0146E060EE15C02E29F
:10227000E16AE552E16E1450E76E0A0EE7CFDBFF2C
:10228000DB5080080EE156D8010EEECFDBFF020EC8
:10229000EECFDBFF030EEECFDBFF040EEECFDBFF56
:1022A0000DD0010EDB6A020EDB6A030EDB6A040E40
:1022B000DB6A110EDB5002E0040EDB8EF80EDBCF82
:1022C000E9FFF90EDBCFEAFF050EDBCFEEFF060ECE
:1022D000DBCFEEFF070EDBCFEEFF080EDBCFEEFF0E
:1022E000010EDBCF14F0020EDBCF15F0030EDBCFB7
:1022F00016F0040EDBCF17F014C006F015C007F07F
:1023000016C008F017C009F0120EE15C02E2E16AA3
:10231000E552E16EE552E5CFDAFFE7CFD9FF1200D3
:1023200009D8EECFE6FFEECFE6FFEECFE6FFEFCF28
:10233000E6FF1200D950FA0FE96EFF0EDA20EA6EBE
:02234000120089
:0E234200D9CFE6FFDACFE6FFE1CFD9FFE2CF39
:10235000DAFFE652146815687F0E166E176AD950B8
:10236000FA0FE96EFF0EDA20EA6EEE501416EE5008
:102370001516EE501616EE5017166AD814C0EEFF5A
:1023800015C0EEFF16C0EEFF17C0EEFFFD0EDB50CE
:10239000800B02E0010E01D0000EE66E59D8060E49
:1023A000E926000EEA22E552E750EF6EFC0EDBCF85
:1023B00014F0FD0EDBCF15F0D89014361536FC0E58
:1023C00014C0DBFFFD0E15C0DBFFDB50E66E40D80E
:1023D000040EE926000EEA22E552E750EE6EED6AA1
:1023E000FD0EDB50146E156AFF0E141818E115501F
:1023F00016E12ED8EECF14F0EECF15F0EECF16F09A
:10240000EFCF17F0145015101610171006E0210E1C
:1024100000016A6F6B6B800E0BD0040E09D0FD0EAD
:10242000DB5008E115D8EE6AEE6AEE6AEE6A010E3C
:10243000DF6E06D0020EDF6E0BD8EE52EE52EE8E3D
:10244000DF50E552E552E5CFDAFFE7CFD9FF1200C2
:0E245000F80EDBCFE9FFF90EDBCFEAFF12003A
:02245E00D9CFD4
:10246000E6FFDACFE6FFE1CFD9FFE2CFDAFF5BD8B4
:10247000153411E21450FE08000E15540CE276D803
:1024800005E06CD8800EEE6EEE6847D067D8800EFF
:10249000EE6E7F0E0ED047D8D890155004E6010E90
:1024A000145C000E15580BE261D805E057D8EE6AAF
:1024B000800EEE6E32D052D8EE6AEE6A2ED047D839
:1024C000EECF14F0EECF15F0EECF16F0EFCF17F001
:1024D00032D814C0EEFF15C0EEFF16C0EEFF17C0D5
:1024E000EEFF21D81450010B05E025D8020E3AD892
:1024F000EF8E04D020D8020E35D8EF9E14D8D89095
:102500001532143218D8030E2DD814C0EFFF1AD884
:1025100004E011D8030E26D8EF8EE552E5CFDAFF9E
:10252000E7CFD9FF120013D8040E1CD8EECF14F059
:10253000EFCF15F01200FA0EDBCFE9FFFB0EDBCF79
:10254000EAFF120004D8060E0DD8EF501200FC0E60
:10255000DBCFE9FFFD0EDBCFEAFF1200ECDFEE6A16
:10256000EE6A1200E926000EEA221200220E000195
:082570006A6F6B6BA2EF12F021
:082578002A0EF66E100EF76E3C
:10258000000EF86E00010900F550656F0900F55066
:10259000666F03E1656701D03DD00900F550606FBB
:1025A0000900F550616F0900F550626F09000900DC
:1025B000F550E96E0900F550EA6E090009000900BE
:1025C000F550636F0900F550646F09000900F6CFFC
:1025D00067F0F7CF68F0F8CF69F060C0F6FF61C030
:1025E000F7FF62C0F8FF0001635302E1645307E0A4
:1025F0000900F550EE6E6307F8E26407F9D767C08B
:10260000F6FF68C0F7FF69C0F8FF00016507000E1C
:06261000665BBFD712005B
:0A2616004154495641444F20004C46
:10262000454420564552444520003330206D696EA4
:1026300075746F73003230206D696E75746F73003E
:102640003130206D696E75746F730035206D696E61
:1026500075746F730031206D696E75746F00202082
:10266000202020202020202020200050726573731D
:0E267000696F6E6520626F74616F32002E001C
:02267E00FF0E4D
:10268000E350216EEF0E01D0F30EE76EE72E46EF1A
:1026900013F00C0E206EE76AE72E4CEF13F0202E9D
:0C26A0004BEF13F0212E44EF13F012005A
:0426AC00000EF36EBB
:1026B00000EE00F0080E01D81200EA6002D0EE6AC7
:0C26C000FCD7F350E9601200EE6AFCD772
:0426CC0013EE00F019
:1026D00023EE00F0F86A019CBCEC12F074EC13F0ED
:0826E000E1EC08F0FBD7120049
:0226E8001200DE
:020000040030CA
:01000100CC32
:010003001EDE
:010005008773
:010006006198
:00000001FF
